{
  "_format": "hh-sol-artifact-1",
  "contractName": "Core",
  "sourceName": "contracts/Core.sol",
  "abi": [
    {
      "inputs": [
        {
          "internalType": "address[5]",
          "name": "_fiveFounders",
          "type": "address[5]"
        }
      ],
      "stateMutability": "payable",
      "type": "constructor"
    },
    {
      "anonymous": false,
      "inputs": [
        {
          "indexed": true,
          "internalType": "address",
          "name": "receiver",
          "type": "address"
        },
        {
          "indexed": false,
          "internalType": "uint256",
          "name": "amount",
          "type": "uint256"
        },
        {
          "indexed": true,
          "internalType": "uint256",
          "name": "matrixIndex",
          "type": "uint256"
        }
      ],
      "name": "BelowTwoAppear",
      "type": "event"
    },
    {
      "anonymous": false,
      "inputs": [
        {
          "indexed": true,
          "internalType": "address",
          "name": "owner",
          "type": "address"
        },
        {
          "indexed": true,
          "internalType": "uint256",
          "name": "levelPrice",
          "type": "uint256"
        },
        {
          "indexed": false,
          "internalType": "uint256",
          "name": "newValue",
          "type": "uint256"
        }
      ],
      "name": "ClaimsAppear",
      "type": "event"
    },
    {
      "anonymous": false,
      "inputs": [
        {
          "indexed": true,
          "internalType": "address",
          "name": "owner",
          "type": "address"
        },
        {
          "indexed": true,
          "internalType": "uint256",
          "name": "value",
          "type": "uint256"
        },
        {
          "indexed": true,
          "internalType": "uint256",
          "name": "newLevel",
          "type": "uint256"
        }
      ],
      "name": "ClaimsSpent",
      "type": "event"
    },
    {
      "anonymous": false,
      "inputs": [
        {
          "indexed": true,
          "internalType": "address",
          "name": "owner",
          "type": "address"
        },
        {
          "indexed": false,
          "internalType": "uint256",
          "name": "amount",
          "type": "uint256"
        }
      ],
      "name": "ClaimsWithdraw",
      "type": "event"
    },
    {
      "anonymous": false,
      "inputs": [
        {
          "indexed": true,
          "internalType": "address",
          "name": "sender",
          "type": "address"
        },
        {
          "indexed": false,
          "internalType": "uint256",
          "name": "amount",
          "type": "uint256"
        }
      ],
      "name": "DirectTransfer",
      "type": "event"
    },
    {
      "anonymous": false,
      "inputs": [
        {
          "indexed": true,
          "internalType": "address",
          "name": "user",
          "type": "address"
        },
        {
          "indexed": true,
          "internalType": "uint256",
          "name": "matrixIndex",
          "type": "uint256"
        },
        {
          "indexed": false,
          "internalType": "uint256",
          "name": "amount",
          "type": "uint256"
        }
      ],
      "name": "GiftAppear",
      "type": "event"
    },
    {
      "anonymous": false,
      "inputs": [
        {
          "indexed": true,
          "internalType": "address",
          "name": "owner",
          "type": "address"
        },
        {
          "indexed": true,
          "internalType": "address",
          "name": "spender",
          "type": "address"
        },
        {
          "indexed": false,
          "internalType": "uint256",
          "name": "amount",
          "type": "uint256"
        }
      ],
      "name": "GiftSpent",
      "type": "event"
    },
    {
      "anonymous": false,
      "inputs": [
        {
          "indexed": true,
          "internalType": "address",
          "name": "user",
          "type": "address"
        },
        {
          "indexed": false,
          "internalType": "uint256",
          "name": "newValue",
          "type": "uint256"
        },
        {
          "indexed": true,
          "internalType": "address",
          "name": "whose",
          "type": "address"
        }
      ],
      "name": "ReferralEarn",
      "type": "event"
    },
    {
      "anonymous": false,
      "inputs": [
        {
          "indexed": true,
          "internalType": "address",
          "name": "user",
          "type": "address"
        },
        {
          "indexed": true,
          "internalType": "address",
          "name": "whose",
          "type": "address"
        },
        {
          "indexed": false,
          "internalType": "uint256",
          "name": "change",
          "type": "uint256"
        }
      ],
      "name": "WhoseRegistered",
      "type": "event"
    },
    {
      "stateMutability": "payable",
      "type": "fallback"
    },
    {
      "inputs": [],
      "name": "AddressesGlobalTotal",
      "outputs": [
        {
          "internalType": "uint256",
          "name": "",
          "type": "uint256"
        }
      ],
      "stateMutability": "view",
      "type": "function"
    },
    {
      "inputs": [],
      "name": "getBalance",
      "outputs": [
        {
          "internalType": "uint256",
          "name": "",
          "type": "uint256"
        }
      ],
      "stateMutability": "view",
      "type": "function"
    },
    {
      "inputs": [
        {
          "internalType": "uint256",
          "name": "_matrixIndex",
          "type": "uint256"
        },
        {
          "internalType": "uint256",
          "name": "_userIndex",
          "type": "uint256"
        }
      ],
      "name": "getCoreUserByMatrixPosition",
      "outputs": [
        {
          "internalType": "address",
          "name": "userAddress",
          "type": "address"
        },
        {
          "components": [
            {
              "internalType": "uint256",
              "name": "claims",
              "type": "uint256"
            },
            {
              "internalType": "uint256",
              "name": "gifts",
              "type": "uint256"
            },
            {
              "internalType": "uint256",
              "name": "level",
              "type": "uint256"
            },
            {
              "internalType": "address",
              "name": "whose",
              "type": "address"
            },
            {
              "internalType": "bool",
              "name": "isValue",
              "type": "bool"
            }
          ],
          "internalType": "struct Core.UserGlobal",
          "name": "user",
          "type": "tuple"
        }
      ],
      "stateMutability": "view",
      "type": "function"
    },
    {
      "inputs": [
        {
          "internalType": "uint256",
          "name": "_level",
          "type": "uint256"
        }
      ],
      "name": "getLevelContract",
      "outputs": [
        {
          "internalType": "address",
          "name": "",
          "type": "address"
        }
      ],
      "stateMutability": "view",
      "type": "function"
    },
    {
      "inputs": [],
      "name": "getTenPercentOnceYear",
      "outputs": [],
      "stateMutability": "nonpayable",
      "type": "function"
    },
    {
      "inputs": [
        {
          "internalType": "uint256",
          "name": "_matrixIdx",
          "type": "uint256"
        }
      ],
      "name": "getTotalFromMatrix",
      "outputs": [
        {
          "internalType": "uint256",
          "name": "total",
          "type": "uint256"
        }
      ],
      "stateMutability": "view",
      "type": "function"
    },
    {
      "inputs": [
        {
          "internalType": "address",
          "name": "_userAddress",
          "type": "address"
        }
      ],
      "name": "getUserFromCore",
      "outputs": [
        {
          "components": [
            {
              "internalType": "uint256",
              "name": "claims",
              "type": "uint256"
            },
            {
              "internalType": "uint256",
              "name": "gifts",
              "type": "uint256"
            },
            {
              "internalType": "uint256",
              "name": "level",
              "type": "uint256"
            },
            {
              "internalType": "address",
              "name": "whose",
              "type": "address"
            },
            {
              "internalType": "bool",
              "name": "isValue",
              "type": "bool"
            }
          ],
          "internalType": "struct Core.UserGlobal",
          "name": "user",
          "type": "tuple"
        }
      ],
      "stateMutability": "view",
      "type": "function"
    },
    {
      "inputs": [
        {
          "internalType": "uint256",
          "name": "_matrixIdx",
          "type": "uint256"
        },
        {
          "internalType": "address",
          "name": "_userWallet",
          "type": "address"
        }
      ],
      "name": "getUserFromMatrix",
      "outputs": [
        {
          "components": [
            {
              "internalType": "uint256",
              "name": "index",
              "type": "uint256"
            },
            {
              "internalType": "uint256",
              "name": "parent",
              "type": "uint256"
            },
            {
              "internalType": "bool",
              "name": "isRight",
              "type": "bool"
            },
            {
              "internalType": "uint256",
              "name": "plateau",
              "type": "uint256"
            },
            {
              "internalType": "bool",
              "name": "isValue",
              "type": "bool"
            }
          ],
          "internalType": "struct MatrixTemplate.User",
          "name": "user",
          "type": "tuple"
        },
        {
          "internalType": "uint256",
          "name": "total",
          "type": "uint256"
        }
      ],
      "stateMutability": "view",
      "type": "function"
    },
    {
      "inputs": [
        {
          "internalType": "uint256",
          "name": "_level",
          "type": "uint256"
        },
        {
          "internalType": "uint256",
          "name": "_index",
          "type": "uint256"
        }
      ],
      "name": "getWalletByIndexFromMatrix",
      "outputs": [
        {
          "internalType": "address",
          "name": "userAddress",
          "type": "address"
        }
      ],
      "stateMutability": "view",
      "type": "function"
    },
    {
      "inputs": [],
      "name": "lastUpdated",
      "outputs": [
        {
          "internalType": "uint256",
          "name": "",
          "type": "uint256"
        }
      ],
      "stateMutability": "view",
      "type": "function"
    },
    {
      "inputs": [],
      "name": "maxLevel",
      "outputs": [
        {
          "internalType": "uint256",
          "name": "",
          "type": "uint256"
        }
      ],
      "stateMutability": "view",
      "type": "function"
    },
    {
      "inputs": [],
      "name": "payUnit",
      "outputs": [
        {
          "internalType": "uint256",
          "name": "",
          "type": "uint256"
        }
      ],
      "stateMutability": "view",
      "type": "function"
    },
    {
      "inputs": [
        {
          "internalType": "address",
          "name": "_whose",
          "type": "address"
        }
      ],
      "name": "register",
      "outputs": [],
      "stateMutability": "payable",
      "type": "function"
    },
    {
      "inputs": [
        {
          "internalType": "address",
          "name": "_wallet",
          "type": "address"
        },
        {
          "internalType": "uint256",
          "name": "_matrixIndex",
          "type": "uint256"
        }
      ],
      "name": "sendHalf",
      "outputs": [],
      "stateMutability": "nonpayable",
      "type": "function"
    },
    {
      "inputs": [
        {
          "internalType": "address",
          "name": "_userAddress",
          "type": "address"
        },
        {
          "internalType": "uint256",
          "name": "_matrixIndex",
          "type": "uint256"
        },
        {
          "internalType": "uint256",
          "name": "_field",
          "type": "uint256"
        },
        {
          "components": [
            {
              "internalType": "uint256",
              "name": "claims",
              "type": "uint256"
            },
            {
              "internalType": "uint256",
              "name": "gifts",
              "type": "uint256"
            },
            {
              "internalType": "uint256",
              "name": "level",
              "type": "uint256"
            },
            {
              "internalType": "address",
              "name": "whose",
              "type": "address"
            },
            {
              "internalType": "bool",
              "name": "isValue",
              "type": "bool"
            }
          ],
          "internalType": "struct Core.UserGlobal",
          "name": "_tmpUser",
          "type": "tuple"
        }
      ],
      "name": "updateUser",
      "outputs": [],
      "stateMutability": "nonpayable",
      "type": "function"
    },
    {
      "inputs": [
        {
          "internalType": "uint256",
          "name": "_amount",
          "type": "uint256"
        }
      ],
      "name": "withdrawClaim",
      "outputs": [],
      "stateMutability": "nonpayable",
      "type": "function"
    },
    {
      "stateMutability": "payable",
      "type": "receive"
    }
  ],
  "bytecode": "0x60a060405260018055600060175560405162003ca338038062003ca38339810160408190526200002f9162000292565b80516001600160a01b031660805260005b6005811015620001c1576000816000036200005e5750815162000087565b826200006c60018462000358565b600581106200007f576200007f6200032c565b602002015190505b6040518060a00160405280600081526020016000815260200160138152602001826001600160a01b031681526020016001151581525060166000858560058110620000d657620000d66200032c565b602090810291909101516001600160a01b039081168352828201939093526040918201600020845181559084015160018201559083015160028201556060830151600390910180546080909401511515600160a01b026001600160a81b03199094169183169190911792909217909155601783905581168383600581106200016257620001626200032c565b60200201516001600160a01b03167f6ab541b1c1f8ccbaff8d2e99776a9031b131e4282e138c33dc645fcff8b2c8136000604051620001a391815260200190565b60405180910390a35080620001b88162000374565b91505062000040565b5060005b601381116200025b576000813084604051620001e19062000267565b620001ef9392919062000390565b604051809103906000f0801580156200020c573d6000803e3d6000fd5b50905080600283601481106200022657620002266200032c565b0180546001600160a01b0319166001600160a01b03929092169190911790555080620002528162000374565b915050620001c5565b505042600055620003e2565b61199b806200230883390190565b80516001600160a01b03811681146200028d57600080fd5b919050565b600060a08284031215620002a557600080fd5b82601f830112620002b557600080fd5b60405160a081016001600160401b0381118282101715620002e657634e487b7160e01b600052604160045260246000fd5b6040528060a0840185811115620002fc57600080fd5b845b818110156200032157620003128162000275565b835260209283019201620002fe565b509195945050505050565b634e487b7160e01b600052603260045260246000fd5b634e487b7160e01b600052601160045260246000fd5b818103818111156200036e576200036e62000342565b92915050565b60006001820162000389576200038962000342565b5060010190565b8381526001600160a01b0383811660208084019190915260e0830191604084018560005b6005811015620003d5578151841683529184019190840190600101620003b4565b5050505050949350505050565b608051611eee6200041a6000396000818161061f0152818161070f015281816108d001528181610c9d01526113390152611eee6000f3fe6080604052600436106100eb5760003560e01c806390e7af8f11610084578063cc06c35911610056578063cc06c35914610382578063d0b06f5d14610397578063dfac767c146103ad578063fb1359a3146103cd57005b806390e7af8f14610311578063913a8f881461033157806394328eab14610347578063a224dcb71461036257005b80635f8e7d03116100bd5780635f8e7d031461023f57806381f9b5b01461026c5780638212e2bb1461028c5780638a061147146102f157005b806312065fe0146101bd5780632c4d363a146101df57806335c578df146101f45780634420e4861461022c57005b366101bb576001546001146101375760405162461bcd60e51b815260206004820152600d60248201526c4e6f207265656e7472616e637960981b60448201526064015b60405180910390fd5b600260015560405134815233907f455589ce42ffef071437b1cd8549f4989ab4ada16aa8132e13a4fdf75df577cf9060200160405180910390a26101b433346040518060a0016040528060008152602001600081526020016000815260200160006001600160a01b031681526020016000151581525060006103fb565b6001808055005b005b3480156101c957600080fd5b50475b6040519081526020015b60405180910390f35b3480156101eb57600080fd5b506101bb6108c5565b34801561020057600080fd5b5061021461020f366004611ae9565b610abd565b6040516001600160a01b0390911681526020016101d6565b6101bb61023a366004611b20565b610b45565b34801561024b57600080fd5b5061025f61025a366004611b20565b61105c565b6040516101d69190611b3d565b34801561027857600080fd5b506101bb610287366004611b81565b6110fe565b34801561029857600080fd5b506102ac6102a7366004611bd4565b6113a4565b604080518351815260208085015190820152838201511515918101919091526060808401519082015260809283015115159281019290925260a082015260c0016101d6565b3480156102fd57600080fd5b506101cc61030c366004611c04565b611480565b34801561031d57600080fd5b5061021461032c366004611c04565b611511565b34801561033d57600080fd5b506101cc60175481565b34801561035357600080fd5b506101cc662386f26fc1000081565b34801561036e57600080fd5b506101bb61037d366004611c04565b611588565b34801561038e57600080fd5b506101cc601381565b3480156103a357600080fd5b506101cc60005481565b3480156103b957600080fd5b506101bb6103c8366004611c1d565b61177e565b3480156103d957600080fd5b506103ed6103e8366004611ae9565b6118b4565b6040516101d6929190611c49565b6000662386f26fc100009050600080600085608001511561048b576001600160a01b038089166000908152601660209081526040918290208951815590890151600182015590880151600282015560608801516003909101805460808a01511515600160a01b0274ffffffffffffffffffffffffffffffffffffffffff1990911692909316919091179190911790555b8615610495578692505b6001600160a01b038816600090815260166020526040902060030154600160a01b900460ff1615610566576001600160a01b03881660009081526016602052604090205415610505576001600160a01b0388166000908152601660205260409020546105029084906119c9565b92505b6001600160a01b03881660009081526016602052604090206002015460131115610562576001600160a01b0388166000908152601660205260409020600201546105509060016119c9565b915061055b826119d5565b9350610566565b5060015b60ff81161580156105775750600083115b156108bb575b8383106108bb576001600160a01b038816600090815260166020526040902060030154600160a01b900460ff16156105fe576001600160a01b038816600081815260166020526040808220600201859055518492879290917f7e400c520d3c15affc1a9456dc5c2cc9120b1dbf41de20aa72f72c7a28afbdb79190a4610763565b6040518060a0016040528084815260200160008152602001600081526020017f00000000000000000000000000000000000000000000000000000000000000006001600160a01b0316815260200160011515815250601660008a6001600160a01b03166001600160a01b0316815260200190815260200160002060008201518160000155602082015181600101556040820151816002015560608201518160030160006101000a8154816001600160a01b0302191690836001600160a01b0316021790555060808201518160030160146101000a81548160ff0219169083151502179055509050506106fc60016017546119c990919063ffffffff16565b6017556040518381526001600160a01b037f0000000000000000000000000000000000000000000000000000000000000000811691908a16907f6ab541b1c1f8ccbaff8d2e99776a9031b131e4282e138c33dc645fcff8b2c8139060200160405180910390a35b61076d8385611a67565b6001600160a01b0389166000908152601660209081526040808320849055805160a0810182528381529182018390528101829052606081018290526080810191909152909350851561081c57506001600160a01b03888116600090815260166020908152604091829020825160a081018452815481526001820154928101929092526002810154928201929092526003909101549182166060820152600160a01b90910460ff16151560808201525b6002836014811061082f5761082f611c9c565b015460405163315c69e360e11b81526001600160a01b03909116906362b8d3c690610860908c908590600401611c49565b600060405180830381600087803b15801561087a57600080fd5b505af115801561088e573d6000803e3d6000fd5b505050506108a6600286611a7390919063ffffffff16565b94506108b38360016119c9565b92505061057d565b5050505050505050565b336001600160a01b037f0000000000000000000000000000000000000000000000000000000000000000161461093d5760405162461bcd60e51b815260206004820152600f60248201527f6163636573732064656e69656420330000000000000000000000000000000000604482015260640161012e565b478061098b5760405162461bcd60e51b815260206004820152601060248201527f62616c616e636520697320656d70747900000000000000000000000000000000604482015260640161012e565b60006109b760186109b1603c6109b1603c6109b160005442611a6790919063ffffffff16565b90611a7f565b905061016d811015610a0b5760405162461bcd60e51b815260206004820152600f60248201527f79656172206e6f74207061737365640000000000000000000000000000000000604482015260640161012e565b6000610a1883600a611a7f565b604051909150600090339083908381818185875af1925050503d8060008114610a5d576040519150601f19603f3d011682016040523d82523d6000602084013e610a62565b606091505b5050905080610ab35760405162461bcd60e51b815260206004820152600d60248201527f53656e64696e6720657272203500000000000000000000000000000000000000604482015260640161012e565b5050426000555050565b600060028360148110610ad257610ad2611c9c565b015460405163cca76c5d60e01b8152600481018490526001600160a01b039091169063cca76c5d90602401602060405180830381865afa158015610b1a573d6000803e3d6000fd5b505050506040513d601f19601f82011682018060405250810190610b3e9190611cb2565b9392505050565b600154600114610b875760405162461bcd60e51b815260206004820152600d60248201526c4e6f207265656e7472616e637960981b604482015260640161012e565b600260015533600090815260166020526040902060030154600160a01b900460ff1615610bf65760405162461bcd60e51b815260206004820152601760248201527f7573657220616c72656164792072656769737465726564000000000000000000604482015260640161012e565b6001600160a01b038116600090815260166020526040902060030154600160a01b900460ff16610c685760405162461bcd60e51b815260206004820152601c60248201527f77686f73652075736572206973206e6f74207265676973746572656400000000604482015260640161012e565b6001600160a01b038116600090815260166020526040812060030154600160a01b900460ff1615610c9a575080610cbd565b507f00000000000000000000000000000000000000000000000000000000000000005b6001600160a01b038116600090815260166020526040812060010154662386f26fc100001115610d6657662386f26fc10000341015610d3e5760405162461bcd60e51b815260206004820152601060248201527f6e6f7420656e6f7567682066756e647300000000000000000000000000000000604482015260640161012e565b662386f26fc10000341115610d6157610d5e34662386f26fc10000611a67565b90505b610df2565b6001600160a01b038216600090815260166020526040902060010154610d9390662386f26fc10000611a67565b6001600160a01b0383166000818152601660209081526040918290206001019390935551662386f26fc10000815234935033927ff18fbda08e8278ab48846622fc8383c17a3883e113fee336afcf563624a7a01c910160405180910390a35b6040805160a081018252600080825260208083018281528385018381526001600160a01b03808916606087019081526001608088018181523388526016909652979095209551865591518587015551600285015591516003909301805491511515600160a01b0274ffffffffffffffffffffffffffffffffffffffffff199092169390921692909217919091179055601754610e8d916119c9565b6017556002546040805160a081018252600080825260208201819052818301819052606082018190526080820152905163315c69e360e11b81526001600160a01b03909216916362b8d3c691610ee891339190600401611c49565b600060405180830381600087803b158015610f0257600080fd5b505af1158015610f16573d6000803e3d6000fd5b50505050600081111561101357662386f26fc100008110610f7957610f7433826040518060a0016040528060008152602001600081526020016000815260200160006001600160a01b031681526020016000151581525060006103fb565b611013565b604051600090339083908381818185875af1925050503d8060008114610fbb576040519150601f19603f3d011682016040523d82523d6000602084013e610fc0565b606091505b50509050806110115760405162461bcd60e51b815260206004820152600d60248201527f53656e64696e6720657272203300000000000000000000000000000000000000604482015260640161012e565b505b6040518181526001600160a01b0383169033907f6ab541b1c1f8ccbaff8d2e99776a9031b131e4282e138c33dc645fcff8b2c8139060200160405180910390a350506001805550565b6110996040518060a0016040528060008152602001600081526020016000815260200160006001600160a01b031681526020016000151581525090565b506001600160a01b03908116600090815260166020908152604091829020825160a081018452815481526001820154928101929092526002810154928201929092526003909101549182166060820152600160a01b90910460ff161515608082015290565b61110733611a8b565b6111535760405162461bcd60e51b815260206004820152600f60248201527f6163636573732064656e69656420310000000000000000000000000000000000604482015260640161012e565b600061115e846119d5565b90506000836000036111ea576001600160a01b03861660009081526016602052604090206001015461119090836119c9565b6001600160a01b038716600081815260166020908152604091829020600101939093555184815287927ff21adea5d57308a9db93e1096251a15ccaaf229f57256fe0249cb1a99a272e1191015b60405180910390a361131d565b83600103611267576001600160a01b03861660009081526016602052604090205461121590836119c9565b6001600160a01b038716600081815260166020526040908190208390555191925083917f88c484291ad002b95046f48056cff465fa231fe6e8a77174f0a72eb357ff6d98906111dd9085815260200190565b8360020361131d576001600160a01b0380871660009081526016602052604080822060030154909216808252919020546112a190846119c9565b6001600160a01b03808316600081815260166020526040908190208490555192945091908916907f43031c57404141a57f71e1d0b685cd228ca9283f176e2c2fd60037ed7b1adf18906112f79086815260200190565b60405180910390a361131b81600061131436889003880188611cdd565b60016103fb565b505b600061132a836002611a73565b905080821015801561136e57507f00000000000000000000000000000000000000000000000000000000000000006001600160a01b0316876001600160a01b031614155b801561137a5750601386105b1561139b5761139b87600061139436889003880188611cdd565b60006103fb565b50505050505050565b6113da6040518060a001604052806000815260200160008152602001600015158152602001600081526020016000151581525090565b6000600284601481106113ef576113ef611c9c565b01546040517f6f77926b0000000000000000000000000000000000000000000000000000000081526001600160a01b03858116600483015290911690636f77926b9060240160c060405180830381865afa158015611451573d6000803e3d6000fd5b505050506040513d601f19601f820116820180604052508101906114759190611d6a565b909590945092505050565b60006002826014811061149557611495611c9c565b0160009054906101000a90046001600160a01b03166001600160a01b031663554d63c56040518163ffffffff1660e01b8152600401602060405180830381865afa1580156114e7573d6000803e3d6000fd5b505050506040513d601f19601f8201168201806040525081019061150b9190611e11565b92915050565b600060138211156115645760405162461bcd60e51b815260206004820152601a60248201527f5f6c6576656c2065786365656473206d6178696d756d20283029000000000000604482015260640161012e565b6002826014811061157757611577611c9c565b01546001600160a01b031692915050565b3360009081526016602052604090205481101561169857336000908152601660205260409020546115b99082611a67565b3360008181526016602052604080822093909355915183908381818185875af1925050503d8060008114611609576040519150601f19603f3d011682016040523d82523d6000602084013e61160e565b606091505b505090508061165f5760405162461bcd60e51b815260206004820152600d60248201527f53656e64696e6720657272203100000000000000000000000000000000000000604482015260640161012e565b60405182815233907f45d7c638dacbe920c33c14609961ca0ff27e1ff551e1203e285b5bb236dffc7c9060200160405180910390a25050565b33600081815260166020526040808220805490839055905190929083908381818185875af1925050503d80600081146116ed576040519150601f19603f3d011682016040523d82523d6000602084013e6116f2565b606091505b50509050806117435760405162461bcd60e51b815260206004820152600d60248201527f53656e64696e6720657272203200000000000000000000000000000000000000604482015260640161012e565b60405182815233907f45d7c638dacbe920c33c14609961ca0ff27e1ff551e1203e285b5bb236dffc7c9060200160405180910390a250505b50565b61178733611a8b565b6117d35760405162461bcd60e51b815260206004820152600f60248201527f6163636573732064656e69656420320000000000000000000000000000000000604482015260640161012e565b601381106117df575050565b60006117ef60026109b1846119d5565b90506000836001600160a01b03166108fc839081150290604051600060405180830381858888f1935050505090508061186a5760405162461bcd60e51b815260206004820152600d60248201527f53656e64696e6720657272203400000000000000000000000000000000000000604482015260640161012e565b82846001600160a01b03167fdf09d32c9fb6ed1cd2c0baf4779a62ca391bb67477ae59dde70805f1819303ed846040516118a691815260200190565b60405180910390a350505050565b6040805160a0810182526000808252602082018190529181018290526060810182905260808101829052600284601481106118f1576118f1611c9c565b015460405163cca76c5d60e01b8152600481018590526001600160a01b039091169063cca76c5d90602401602060405180830381865afa158015611939573d6000803e3d6000fd5b505050506040513d601f19601f8201168201806040525081019061195d9190611cb2565b6001600160a01b03818116600090815260166020908152604091829020825160a081018452815481526001820154928101929092526002810154928201929092526003909101549182166060820152600160a01b90910460ff1615156080820152909590945092505050565b6000610b3e8284611e40565b60006013821115611a285760405162461bcd60e51b815260206004820152601a60248201527f5f6c6576656c2065786365656473206d6178696d756d20283129000000000000604482015260640161012e565b662386f26fc10000821561150b5760005b83811015611a6057611a4c826002611a73565b915080611a5881611e53565b915050611a39565b5092915050565b6000610b3e8284611e6c565b6000610b3e8284611e7f565b6000610b3e8284611e96565b6000805b6014811015611ae057826001600160a01b031660028260148110611ab557611ab5611c9c565b01546001600160a01b031603611ace5750600192915050565b80611ad881611e53565b915050611a8f565b50600092915050565b60008060408385031215611afc57600080fd5b50508035926020909101359150565b6001600160a01b038116811461177b57600080fd5b600060208284031215611b3257600080fd5b8135610b3e81611b0b565b60a0810161150b82848051825260208101516020830152604081015160408301526001600160a01b0360608201511660608301526080810151151560808301525050565b600080600080848603610100811215611b9957600080fd5b8535611ba481611b0b565b9450602086013593506040860135925060a0605f1982011215611bc657600080fd5b509295919450926060019150565b60008060408385031215611be757600080fd5b823591506020830135611bf981611b0b565b809150509250929050565b600060208284031215611c1657600080fd5b5035919050565b60008060408385031215611c3057600080fd5b8235611c3b81611b0b565b946020939093013593505050565b6001600160a01b038316815260c08101610b3e60208301848051825260208101516020830152604081015160408301526001600160a01b0360608201511660608301526080810151151560808301525050565b634e487b7160e01b600052603260045260246000fd5b600060208284031215611cc457600080fd5b8151610b3e81611b0b565b801515811461177b57600080fd5b600060a08284031215611cef57600080fd5b60405160a0810181811067ffffffffffffffff82111715611d2057634e487b7160e01b600052604160045260246000fd5b80604052508235815260208301356020820152604083013560408201526060830135611d4b81611b0b565b60608201526080830135611d5e81611ccf565b60808201529392505050565b60008082840360c0811215611d7e57600080fd5b60a0811215611d8c57600080fd5b5060405160a0810181811067ffffffffffffffff82111715611dbe57634e487b7160e01b600052604160045260246000fd5b806040525083518152602084015160208201526040840151611ddf81611ccf565b6040820152606084810151908201526080840151611dfc81611ccf565b608082015260a0939093015192949293505050565b600060208284031215611e2357600080fd5b5051919050565b634e487b7160e01b600052601160045260246000fd5b8082018082111561150b5761150b611e2a565b600060018201611e6557611e65611e2a565b5060010190565b8181038181111561150b5761150b611e2a565b808202811582820484141761150b5761150b611e2a565b600082611eb357634e487b7160e01b600052601260045260246000fd5b50049056fea2646970667358221220bf60d7e3cff35e415b1d1f7ccb653642a88cef6f125c52f17e8e59a0e146732b64736f6c6343000811003360c06040523480156200001157600080fd5b506040516200199b3803806200199b83398101604081905262000034916200059e565b60005b60058160ff161015620001ac576000808062000052620001c6565b6040805160a0810182526002548152602081018590526000918101829052606081018490526001608082015293965091945092508290036200009657600160408201525b80600080888860ff1660058110620000b257620000b26200064a565b602090810291909101516001600160a01b031682528181019290925260409081016000208351815591830151600183015582015160028201805491151560ff199283161790556060830151600383015560809092015160049091018054911515919092161790558560ff8616600581106200013157620001316200064a565b6020020151600160008760ff16815260200190815260200160002060006101000a8154816001600160a01b0302191690836001600160a01b031602179055506200018d6001600254620004e660201b620005ce1790919060201c565b60025550839250620001a3915082905062000676565b91505062000037565b50506080919091526001600160a01b031660a0526200082f565b600080600080620003aa620001ec60028054620004e660201b620005ce1790919060201c565b604080517ff8f9cbfae6cc78fbefe7cdc3a1793dfcf4f0e8bbd8cec470b6a28a7a5a3e1efd81527ff5ecf1b3e9debc68e1d9cfabc5997135bfb7a7a3938b7b606b5b4b3f2f1f0ffe60208201527ff6e4ed9ff2d6b458eadcdf97bd91692de2d4da8fd2d0ac50c6ae9a8272523616818301527fc8c0b887b0a8a4489c948c7f847c6125746c645c544c444038302820181008ff60608201527ff7cae577eec2a03cf3bad76fb589591debb2dd67e0aa9834bea6925f6a4a2e0e60808201527fe39ed557db96902cd38ed14fad815115c786af479b7e8324736353433727170760a08201527fc976c13bb96e881cb166a933a55e490d9d56952b8d4e801485467d236242260660c08201527f753a6d1b65325d0c552a4d1345224105391a310b29122104190a11030902010060e0820152610100808201909252600160f81b6001600160801b68010000000000000000640100000000620100006010600460026000198c019081041790810417908104178881041790810417908104179081041790810417017e818283848586878898a8b8c8d8e8f929395969799a9b9d9e9faaeb6bedeeff0281900460ff039091015104600160ff1b909211020190565b905060006002821015620003c157506000620003eb565b620003e86000620003e2600285620004fd60201b620005e31790919060201c565b6200050b565b90505b60006200040e6000620003e2600186620004fd60201b620005e31790919060201c565b905060008160025462000422919062000698565b6200042f906001620006ae565b905060006200044e6002836200054f60201b620005ef1790919060201c565b905060006200046d6002846200055d60201b620005fb1790919060201c565b9050600181101562000482575060016200049f565b6200049c8282620004e660201b620005ce1790919060201c565b90505b6000620004d5620004c0600184620004fd60201b620005e31790919060201c565b87620004e660201b620005ce1790919060201c565b9a9699509197509495505050505050565b6000620004f48284620006ae565b90505b92915050565b6000620004f4828462000698565b6000825b82811015620005485762000525816002620007c1565b620005319083620006ae565b9150806200053f81620007cf565b9150506200050f565b5092915050565b6000620004f4828462000801565b6000620004f4828462000818565b80516001600160a01b03811681146200058357600080fd5b919050565b634e487b7160e01b600052604160045260246000fd5b600080600060e08486031215620005b457600080fd5b835192506020620005c78186016200056b565b925085605f860112620005d957600080fd5b60405160a081016001600160401b0381118282101715620005fe57620005fe62000588565b6040528060e08701888111156200061457600080fd5b604088015b818110156200063b576200062d816200056b565b835291840191840162000619565b50505080925050509250925092565b634e487b7160e01b600052603260045260246000fd5b634e487b7160e01b600052601160045260246000fd5b600060ff821660ff81036200068f576200068f62000660565b60010192915050565b81810381811115620004f757620004f762000660565b80820180821115620004f757620004f762000660565b600181815b8085111562000705578160001904821115620006e957620006e962000660565b80851615620006f757918102915b93841c9390800290620006c9565b509250929050565b6000826200071e57506001620004f7565b816200072d57506000620004f7565b8160018114620007465760028114620007515762000771565b6001915050620004f7565b60ff84111562000765576200076562000660565b50506001821b620004f7565b5060208310610133831016604e8410600b841016171562000796575081810a620004f7565b620007a28383620006c4565b8060001904821115620007b957620007b962000660565b029392505050565b6000620004f483836200070d565b600060018201620007e457620007e462000660565b5060010190565b634e487b7160e01b600052601260045260246000fd5b600082620008135762000813620007eb565b500690565b6000826200082a576200082a620007eb565b500490565b60805160a0516110dd620008be6000396000818161027a015281816102a70152818161046c015281816109c901528181610a7b01528181610aee0152610bf901526000818161019001528181610445015281816104ca0152818161098c015281816109f801528181610aaa01528181610b1d01528181610b7e01528181610c280152610c8901526110dd6000f3fe6080604052600436106100795760003560e01c80639a0fa3c01161004b5780639a0fa3c01461017e578063cca76c5d146101b2578063d88f666b146101e8578063ffc0483d1461026857005b8063554d63c51461008257806362b8d3c6146100ab5780636f77926b146100cb578063984da82e1461013057005b3661008057005b005b34801561008e57600080fd5b5061009860025481565b6040519081526020015b60405180910390f35b3480156100b757600080fd5b506100806100c6366004610e2a565b61029c565b3480156100d757600080fd5b506100eb6100e6366004610e69565b610532565b604080518351815260208085015190820152838201511515918101919091526060808401519082015260809283015115159281019290925260a082015260c0016100a2565b34801561013c57600080fd5b5061016661014b366004610e84565b6001602052600090815260409020546001600160a01b031681565b6040516001600160a01b0390911681526020016100a2565b34801561018a57600080fd5b506100987f000000000000000000000000000000000000000000000000000000000000000081565b3480156101be57600080fd5b506101666101cd366004610e84565b6000908152600160205260409020546001600160a01b031690565b3480156101f457600080fd5b50610237610203366004610e69565b600060208190529081526040902080546001820154600283015460038401546004909401549293919260ff91821692911685565b6040516100a29594939291909485526020850193909352901515604084015260608301521515608082015260a00190565b34801561027457600080fd5b506101667f000000000000000000000000000000000000000000000000000000000000000081565b336001600160a01b037f00000000000000000000000000000000000000000000000000000000000000001614610332576040517f08c379a000000000000000000000000000000000000000000000000000000000815260206004820152601060248201527f6163636573732064656e69656420303200000000000000000000000000000000604482015260640160405180910390fd5b600080600061033f610607565b6040805160a08101825260025481526020810185905260009181018290526060810184905260016080820152939650919450925082900361039257600160408201528315610392576103928487876108e9565b6001600160a01b03861660009081526020818152604091829020835181559083015160018201559082015160028201805491151560ff1992831617905560608301516003830155608083015160049092018054921515929091169190911790556103fb86610d7b565b600084815260016020526040908190205490517fdfac767c0000000000000000000000000000000000000000000000000000000081526001600160a01b03918216600482018190527f00000000000000000000000000000000000000000000000000000000000000006024830152917f0000000000000000000000000000000000000000000000000000000000000000169063dfac767c90604401600060405180830381600087803b1580156104b057600080fd5b505af11580156104c4573d6000803e3d6000fd5b505050507f0000000000000000000000000000000000000000000000000000000000000000816001600160a01b0316886001600160a01b03167fecc93e3681e475770b08d7067a66d2a6e16620b712ed2dab831114964ca6326a60405160405180910390a450505050505050565b6105686040518060a001604052806000815260200160008152602001600015158152602001600081526020016000151581525090565b506001600160a01b031660009081526020818152604091829020825160a0810184528154815260018201549281019290925260028082015460ff908116151594840194909452600382015460608401526004909101549092161515608082015290549091565b60006105da8284610eb3565b90505b92915050565b60006105da8284610ec6565b60006105da8284610eef565b60006105da8284610f03565b600080600080610828610625600280546105ce90919063ffffffff16565b604080517ff8f9cbfae6cc78fbefe7cdc3a1793dfcf4f0e8bbd8cec470b6a28a7a5a3e1efd81527ff5ecf1b3e9debc68e1d9cfabc5997135bfb7a7a3938b7b606b5b4b3f2f1f0ffe60208201527ff6e4ed9ff2d6b458eadcdf97bd91692de2d4da8fd2d0ac50c6ae9a8272523616818301527fc8c0b887b0a8a4489c948c7f847c6125746c645c544c444038302820181008ff60608201527ff7cae577eec2a03cf3bad76fb589591debb2dd67e0aa9834bea6925f6a4a2e0e60808201527fe39ed557db96902cd38ed14fad815115c786af479b7e8324736353433727170760a08201527fc976c13bb96e881cb166a933a55e490d9d56952b8d4e801485467d236242260660c08201527f753a6d1b65325d0c552a4d1345224105391a310b29122104190a11030902010060e08201526101008082019092527f0100000000000000000000000000000000000000000000000000000000000000600170010000000000000000000000000000000068010000000000000000640100000000620100006010600460026000198c019081041790810417908104178881041790810417908104179081041790810417017e818283848586878898a8b8c8d8e8f929395969799a9b9d9e9faaeb6bedeeff0281900460ff0390910151047f8000000000000000000000000000000000000000000000000000000000000000909211020190565b90506000600282101561083d57506000610855565b610852600061084d8460026105e3565b610dd2565b90505b60006108668161084d8560016105e3565b90506000816002546108789190610ec6565b610883906001610eb3565b905060006108928260026105ef565b905060006108a18360026105fb565b905060018110156108b4575060016108c1565b6108be81836105ce565b90505b60006108d86108d18360016105e3565b87906105ce565b9a9699509197509495505050505050565b6000838152600160208181526040808420546001600160a01b031680855284835293819020815160a08101835281548152938101549284019290925260028083015460ff9081161515928501929092526003830154606085015260049092015416151560808301525b60058111610d7357816040015115610d73576020808301516000908152600190915260409020546001600160a01b031660038211610be2577f0000000000000000000000000000000000000000000000000000000000000000600003610a5c5760405163081f9b5b60e41b81526001600160a01b037f000000000000000000000000000000000000000000000000000000000000000016906381f9b5b090610a259084907f0000000000000000000000000000000000000000000000000000000000000000906000908b90600401610f69565b600060405180830381600087803b158015610a3f57600080fd5b505af1158015610a53573d6000803e3d6000fd5b50505050610cf6565b81600203610ad75760405163081f9b5b60e41b81526001600160a01b037f000000000000000000000000000000000000000000000000000000000000000016906381f9b5b090610a259084907f0000000000000000000000000000000000000000000000000000000000000000906002908b90600401610f69565b60405163081f9b5b60e41b81526001600160a01b037f000000000000000000000000000000000000000000000000000000000000000016906381f9b5b090610b4a9084907f0000000000000000000000000000000000000000000000000000000000000000906001908b90600401610f69565b600060405180830381600087803b158015610b6457600080fd5b505af1158015610b78573d6000803e3d6000fd5b505050507f0000000000000000000000000000000000000000000000000000000000000000816001600160a01b0316876001600160a01b03167f083f8def74523adc5a40763e69a11fe897a82317bbd31a43bce33f3f140bfe0d60405160405180910390a4610cf6565b60405163081f9b5b60e41b81526001600160a01b037f000000000000000000000000000000000000000000000000000000000000000016906381f9b5b090610c559084907f0000000000000000000000000000000000000000000000000000000000000000906001908b90600401610f69565b600060405180830381600087803b158015610c6f57600080fd5b505af1158015610c83573d6000803e3d6000fd5b505050507f0000000000000000000000000000000000000000000000000000000000000000816001600160a01b0316876001600160a01b03167f083f8def74523adc5a40763e69a11fe897a82317bbd31a43bce33f3f140bfe0d60405160405180910390a481600503610cf65750610d73565b50602091820151600090815260018084526040808320546001600160a01b0316835282855291829020825160a081018452815481529181015494820194909452600284015460ff90811615159282019290925260038401546060820152600490930154161515608083015280610d6b81610f9e565b915050610952565b505050505050565b60028054600090815260016020819052604090912080547fffffffffffffffffffffffff0000000000000000000000000000000000000000166001600160a01b0385161790559054610dcc916105ce565b60025550565b6000825b82811015610e0757610de981600261109b565b610df39083610eb3565b915080610dff81610f9e565b915050610dd6565b5092915050565b80356001600160a01b0381168114610e2557600080fd5b919050565b60008082840360c0811215610e3e57600080fd5b610e4784610e0e565b925060a0601f1982011215610e5b57600080fd5b506020830190509250929050565b600060208284031215610e7b57600080fd5b6105da82610e0e565b600060208284031215610e9657600080fd5b5035919050565b634e487b7160e01b600052601160045260246000fd5b808201808211156105dd576105dd610e9d565b818103818111156105dd576105dd610e9d565b634e487b7160e01b600052601260045260246000fd5b600082610efe57610efe610ed9565b500690565b600082610f1257610f12610ed9565b500490565b8035825260208101356020830152604081013560408301526001600160a01b03610f4360608301610e0e565b1660608301526080810135801515808214610f5d57600080fd5b80608085015250505050565b6001600160a01b038516815260208101849052604081018390526101008101610f956060830184610f17565b95945050505050565b600060018201610fb057610fb0610e9d565b5060010190565b600181815b80851115610ff2578160001904821115610fd857610fd8610e9d565b80851615610fe557918102915b93841c9390800290610fbc565b509250929050565b600082611009575060016105dd565b81611016575060006105dd565b816001811461102c576002811461103657611052565b60019150506105dd565b60ff84111561104757611047610e9d565b50506001821b6105dd565b5060208310610133831016604e8410600b8410161715611075575081810a6105dd565b61107f8383610fb7565b806000190482111561109357611093610e9d565b029392505050565b60006105da8383610ffa56fea26469706673582212208319cbf99483baf4e20f4dd4126d49948c4e209b892117424af6209321ab7c2d64736f6c63430008110033",
  "linkReferences": {},
  "deployedLinkReferences": {}
}